{
  "contractName": "MyBaseContract",
  "abi": [
    {
      "inputs": [
        {
          "internalType": "uint256",
          "name": "val",
          "type": "uint256"
        }
      ],
      "name": "innerAdd10",
      "outputs": [
        {
          "internalType": "uint256",
          "name": "",
          "type": "uint256"
        }
      ],
      "stateMutability": "pure",
      "type": "function"
    }
  ],
  "bytecode": "0x608060405260645f55348015610013575f80fd5b50610192806100215f395ff3fe608060405234801561000f575f80fd5b5060043610610029575f3560e01c8063a9937b671461002d575b5f80fd5b610047600480360381019061004291906100a9565b61005d565b60405161005491906100e3565b60405180910390f35b5f600a8261006b9190610129565b9050919050565b5f80fd5b5f819050919050565b61008881610076565b8114610092575f80fd5b50565b5f813590506100a38161007f565b92915050565b5f602082840312156100be576100bd610072565b5b5f6100cb84828501610095565b91505092915050565b6100dd81610076565b82525050565b5f6020820190506100f65f8301846100d4565b92915050565b7f4e487b71000000000000000000000000000000000000000000000000000000005f52601160045260245ffd5b5f61013382610076565b915061013e83610076565b9250828201905080821115610156576101556100fc565b5b9291505056fea264697066735822122058b4b66dc803ccb74566eac05af766ab964dd2ca2d7065410d06c30769ee6e4164736f6c63430008150033",
  "immutableReferences": {},
  "source": "// SPDX-License-Identifier: MIT\npragma solidity >=0.4.22 <0.9.0;\n\ncontract MyBaseContract {\n    uint innerVal = 100;\n\n    function innerAdd10(uint val) public pure returns (uint) {\n        return val + 10;\n    }\n}\n\ncontract MyContract is MyBaseContract {\n    function outerAdd10(uint val) public pure returns (uint) {\n        return innerAdd10(val);\n    }\n\n    function getInnerVal() public view returns(uint) {\n        return innerVal;\n    }\n}\n\ncontract MyContractInstance {\n    constructor() {\n    }\n}\n",
  "sourcePath": "/Users/octavvia/Documents/blockchain/contracts/mycontract.sol",
  "compiler": {
    "name": "solc",
    "version": "0.8.21+commit.d9974bed.Emscripten.clang"
  },
  "schemaVersion": "3.4.16",
  "updatedAt": "2024-03-17T14:02:23.547Z",
  "devdoc": {
    "kind": "dev",
    "methods": {},
    "version": 1
  },
  "userdoc": {
    "kind": "user",
    "methods": {},
    "version": 1
  }
}